{
  "_format": "hh-sol-artifact-1",
  "contractName": "VestingWallet",
  "sourceName": "contracts/VestingWallet.sol",
  "abi": [
    {
      "inputs": [
        {
          "internalType": "address",
          "name": "beneficiaryAddress",
          "type": "address"
        },
        {
          "internalType": "uint64",
          "name": "startTimestamp",
          "type": "uint64"
        },
        {
          "internalType": "uint64",
          "name": "durationSeconds",
          "type": "uint64"
        }
      ],
      "stateMutability": "nonpayable",
      "type": "constructor"
    },
    {
      "anonymous": false,
      "inputs": [
        {
          "indexed": false,
          "internalType": "address",
          "name": "token",
          "type": "address"
        },
        {
          "indexed": false,
          "internalType": "uint256",
          "name": "amount",
          "type": "uint256"
        }
      ],
      "name": "ERC20Released",
      "type": "event"
    },
    {
      "anonymous": false,
      "inputs": [
        {
          "indexed": false,
          "internalType": "uint256",
          "name": "amount",
          "type": "uint256"
        }
      ],
      "name": "EtherReleased",
      "type": "event"
    },
    {
      "inputs": [],
      "name": "beneficiary",
      "outputs": [
        {
          "internalType": "address",
          "name": "",
          "type": "address"
        }
      ],
      "stateMutability": "view",
      "type": "function"
    },
    {
      "inputs": [],
      "name": "duration",
      "outputs": [
        {
          "internalType": "uint256",
          "name": "",
          "type": "uint256"
        }
      ],
      "stateMutability": "view",
      "type": "function"
    },
    {
      "inputs": [
        {
          "internalType": "address",
          "name": "token",
          "type": "address"
        }
      ],
      "name": "release",
      "outputs": [],
      "stateMutability": "nonpayable",
      "type": "function"
    },
    {
      "inputs": [],
      "name": "release",
      "outputs": [],
      "stateMutability": "nonpayable",
      "type": "function"
    },
    {
      "inputs": [],
      "name": "released",
      "outputs": [
        {
          "internalType": "uint256",
          "name": "",
          "type": "uint256"
        }
      ],
      "stateMutability": "view",
      "type": "function"
    },
    {
      "inputs": [
        {
          "internalType": "address",
          "name": "token",
          "type": "address"
        }
      ],
      "name": "released",
      "outputs": [
        {
          "internalType": "uint256",
          "name": "",
          "type": "uint256"
        }
      ],
      "stateMutability": "view",
      "type": "function"
    },
    {
      "inputs": [],
      "name": "start",
      "outputs": [
        {
          "internalType": "uint256",
          "name": "",
          "type": "uint256"
        }
      ],
      "stateMutability": "view",
      "type": "function"
    },
    {
      "inputs": [
        {
          "internalType": "uint64",
          "name": "timestamp",
          "type": "uint64"
        }
      ],
      "name": "vestedAmount",
      "outputs": [
        {
          "internalType": "uint256",
          "name": "",
          "type": "uint256"
        }
      ],
      "stateMutability": "view",
      "type": "function"
    },
    {
      "inputs": [
        {
          "internalType": "address",
          "name": "token",
          "type": "address"
        },
        {
          "internalType": "uint64",
          "name": "timestamp",
          "type": "uint64"
        }
      ],
      "name": "vestedAmount",
      "outputs": [
        {
          "internalType": "uint256",
          "name": "",
          "type": "uint256"
        }
      ],
      "stateMutability": "view",
      "type": "function"
    },
    {
      "stateMutability": "payable",
      "type": "receive"
    }
  ],
  "bytecode": "0x60e06040523480156200001157600080fd5b50604051620014b2380380620014b2833981810160405281019062000037919062000156565b600073ffffffffffffffffffffffffffffffffffffffff168373ffffffffffffffffffffffffffffffffffffffff161415620000aa576040517f08c379a0000000000000000000000000000000000000000000000000000000008152600401620000a190620001d3565b60405180910390fd5b8273ffffffffffffffffffffffffffffffffffffffff1660808173ffffffffffffffffffffffffffffffffffffffff1660601b815250508167ffffffffffffffff1660a08167ffffffffffffffff1660c01b815250508067ffffffffffffffff1660c08167ffffffffffffffff1660c01b81525050505050620002d1565b60008151905062000139816200029d565b92915050565b6000815190506200015081620002b7565b92915050565b6000806000606084860312156200016c57600080fd5b60006200017c8682870162000128565b93505060206200018f868287016200013f565b9250506040620001a2868287016200013f565b9150509250925092565b6000620001bb602a83620001f5565b9150620001c8826200024e565b604082019050919050565b60006020820190508181036000830152620001ee81620001ac565b9050919050565b600082825260208201905092915050565b600062000213826200021a565b9050919050565b600073ffffffffffffffffffffffffffffffffffffffff82169050919050565b600067ffffffffffffffff82169050919050565b7f56657374696e6757616c6c65743a2062656e6566696369617279206973207a6560008201527f726f206164647265737300000000000000000000000000000000000000000000602082015250565b620002a88162000206565b8114620002b457600080fd5b50565b620002c2816200023a565b8114620002ce57600080fd5b50565b60805160601c60a05160c01c60c05160c01c6111a86200030a6000396000610262015260006105050152600061035a01526111a86000f3fe60806040526004361061008a5760003560e01c8063810ec23b11610059578063810ec23b1461015257806386d1a69f1461018f57806396132521146101a65780639852595c146101d1578063be9a65551461020e57610091565b80630a17b06b146100965780630fb5a6b4146100d357806319165587146100fe57806338af3eed1461012757610091565b3661009157005b600080fd5b3480156100a257600080fd5b506100bd60048036038101906100b89190610abf565b610239565b6040516100ca9190610d74565b60405180910390f35b3480156100df57600080fd5b506100e861025e565b6040516100f59190610d74565b60405180910390f35b34801561010a57600080fd5b5061012560048036038101906101209190610a08565b610290565b005b34801561013357600080fd5b5061013c610356565b6040516101499190610c6e565b60405180910390f35b34801561015e57600080fd5b5061017960048036038101906101749190610a31565b61037e565b6040516101869190610d74565b60405180910390f35b34801561019b57600080fd5b506101a461042d565b005b3480156101b257600080fd5b506101bb6104af565b6040516101c89190610d74565b60405180910390f35b3480156101dd57600080fd5b506101f860048036038101906101f39190610a08565b6104b8565b6040516102059190610d74565b60405180910390f35b34801561021a57600080fd5b50610223610501565b6040516102309190610d74565b60405180910390f35b60006102576102466104af565b476102519190610dc1565b83610533565b9050919050565b60007f000000000000000000000000000000000000000000000000000000000000000067ffffffffffffffff16905090565b600061029b826104b8565b6102a5834261037e565b6102af9190610ea2565b905080600160008473ffffffffffffffffffffffffffffffffffffffff1673ffffffffffffffffffffffffffffffffffffffff16815260200190815260200160002060008282546103009190610dc1565b925050819055507fc0e523490dd523c33b1878c9eb14ff46991e3f5b2cd33710918618f2a39cba1b8282604051610338929190610c89565b60405180910390a16103528261034c610356565b836105cd565b5050565b60007f0000000000000000000000000000000000000000000000000000000000000000905090565b600061042561038c846104b8565b8473ffffffffffffffffffffffffffffffffffffffff166370a08231306040518263ffffffff1660e01b81526004016103c59190610c6e565b60206040518083038186803b1580156103dd57600080fd5b505afa1580156103f1573d6000803e3d6000fd5b505050506040513d601f19601f820116820180604052508101906104159190610a96565b61041f9190610dc1565b83610533565b905092915050565b60006104376104af565b61044042610239565b61044a9190610ea2565b90508060008082825461045d9190610dc1565b925050819055507fda9d4e5f101b8b9b1c5b76d0c5a9f7923571acfc02376aa076b75a8c080c956b816040516104939190610d74565b60405180910390a16104ac6104a6610356565b82610653565b50565b60008054905090565b6000600160008373ffffffffffffffffffffffffffffffffffffffff1673ffffffffffffffffffffffffffffffffffffffff168152602001908152602001600020549050919050565b60007f000000000000000000000000000000000000000000000000000000000000000067ffffffffffffffff16905090565b600061053d610501565b8267ffffffffffffffff16101561055757600090506105c7565b61055f61025e565b610567610501565b6105719190610dc1565b8267ffffffffffffffff16111561058a578290506105c7565b61059261025e565b61059a610501565b8367ffffffffffffffff166105af9190610ea2565b846105ba9190610e48565b6105c49190610e17565b90505b92915050565b61064e8363a9059cbb60e01b84846040516024016105ec929190610c89565b604051602081830303815290604052907bffffffffffffffffffffffffffffffffffffffffffffffffffffffff19166020820180517bffffffffffffffffffffffffffffffffffffffffffffffffffffffff8381831617835250505050610747565b505050565b80471015610696576040517f08c379a000000000000000000000000000000000000000000000000000000000815260040161068d90610cf4565b60405180910390fd5b60008273ffffffffffffffffffffffffffffffffffffffff16826040516106bc90610c59565b60006040518083038185875af1925050503d80600081146106f9576040519150601f19603f3d011682016040523d82523d6000602084013e6106fe565b606091505b5050905080610742576040517f08c379a000000000000000000000000000000000000000000000000000000000815260040161073990610cd4565b60405180910390fd5b505050565b60006107a9826040518060400160405280602081526020017f5361666545524332303a206c6f772d6c6576656c2063616c6c206661696c65648152508573ffffffffffffffffffffffffffffffffffffffff1661080e9092919063ffffffff16565b905060008151111561080957808060200190518101906107c99190610a6d565b610808576040517f08c379a00000000000000000000000000000000000000000000000000000000081526004016107ff90610d54565b60405180910390fd5b5b505050565b606061081d8484600085610826565b90509392505050565b60608247101561086b576040517f08c379a000000000000000000000000000000000000000000000000000000000815260040161086290610d14565b60405180910390fd5b6108748561093a565b6108b3576040517f08c379a00000000000000000000000000000000000000000000000000000000081526004016108aa90610d34565b60405180910390fd5b6000808673ffffffffffffffffffffffffffffffffffffffff1685876040516108dc9190610c42565b60006040518083038185875af1925050503d8060008114610919576040519150601f19603f3d011682016040523d82523d6000602084013e61091e565b606091505b509150915061092e82828661094d565b92505050949350505050565b600080823b905060008111915050919050565b6060831561095d578290506109ad565b6000835111156109705782518084602001fd5b816040517f08c379a00000000000000000000000000000000000000000000000000000000081526004016109a49190610cb2565b60405180910390fd5b9392505050565b6000813590506109c381611116565b92915050565b6000815190506109d88161112d565b92915050565b6000815190506109ed81611144565b92915050565b600081359050610a028161115b565b92915050565b600060208284031215610a1a57600080fd5b6000610a28848285016109b4565b91505092915050565b60008060408385031215610a4457600080fd5b6000610a52858286016109b4565b9250506020610a63858286016109f3565b9150509250929050565b600060208284031215610a7f57600080fd5b6000610a8d848285016109c9565b91505092915050565b600060208284031215610aa857600080fd5b6000610ab6848285016109de565b91505092915050565b600060208284031215610ad157600080fd5b6000610adf848285016109f3565b91505092915050565b610af181610ed6565b82525050565b6000610b0282610d8f565b610b0c8185610da5565b9350610b1c818560208601610f32565b80840191505092915050565b6000610b3382610d9a565b610b3d8185610db0565b9350610b4d818560208601610f32565b610b5681610fc3565b840191505092915050565b6000610b6e603a83610db0565b9150610b7982610fd4565b604082019050919050565b6000610b91601d83610db0565b9150610b9c82611023565b602082019050919050565b6000610bb4602683610db0565b9150610bbf8261104c565b604082019050919050565b6000610bd7600083610da5565b9150610be28261109b565b600082019050919050565b6000610bfa601d83610db0565b9150610c058261109e565b602082019050919050565b6000610c1d602a83610db0565b9150610c28826110c7565b604082019050919050565b610c3c81610f14565b82525050565b6000610c4e8284610af7565b915081905092915050565b6000610c6482610bca565b9150819050919050565b6000602082019050610c836000830184610ae8565b92915050565b6000604082019050610c9e6000830185610ae8565b610cab6020830184610c33565b9392505050565b60006020820190508181036000830152610ccc8184610b28565b905092915050565b60006020820190508181036000830152610ced81610b61565b9050919050565b60006020820190508181036000830152610d0d81610b84565b9050919050565b60006020820190508181036000830152610d2d81610ba7565b9050919050565b60006020820190508181036000830152610d4d81610bed565b9050919050565b60006020820190508181036000830152610d6d81610c10565b9050919050565b6000602082019050610d896000830184610c33565b92915050565b600081519050919050565b600081519050919050565b600081905092915050565b600082825260208201905092915050565b6000610dcc82610f14565b9150610dd783610f14565b9250827fffffffffffffffffffffffffffffffffffffffffffffffffffffffffffffffff03821115610e0c57610e0b610f65565b5b828201905092915050565b6000610e2282610f14565b9150610e2d83610f14565b925082610e3d57610e3c610f94565b5b828204905092915050565b6000610e5382610f14565b9150610e5e83610f14565b9250817fffffffffffffffffffffffffffffffffffffffffffffffffffffffffffffffff0483118215151615610e9757610e96610f65565b5b828202905092915050565b6000610ead82610f14565b9150610eb883610f14565b925082821015610ecb57610eca610f65565b5b828203905092915050565b6000610ee182610ef4565b9050919050565b60008115159050919050565b600073ffffffffffffffffffffffffffffffffffffffff82169050919050565b6000819050919050565b600067ffffffffffffffff82169050919050565b60005b83811015610f50578082015181840152602081019050610f35565b83811115610f5f576000848401525b50505050565b7f4e487b7100000000000000000000000000000000000000000000000000000000600052601160045260246000fd5b7f4e487b7100000000000000000000000000000000000000000000000000000000600052601260045260246000fd5b6000601f19601f8301169050919050565b7f416464726573733a20756e61626c6520746f2073656e642076616c75652c207260008201527f6563697069656e74206d61792068617665207265766572746564000000000000602082015250565b7f416464726573733a20696e73756666696369656e742062616c616e6365000000600082015250565b7f416464726573733a20696e73756666696369656e742062616c616e636520666f60008201527f722063616c6c0000000000000000000000000000000000000000000000000000602082015250565b50565b7f416464726573733a2063616c6c20746f206e6f6e2d636f6e7472616374000000600082015250565b7f5361666545524332303a204552433230206f7065726174696f6e20646964206e60008201527f6f74207375636365656400000000000000000000000000000000000000000000602082015250565b61111f81610ed6565b811461112a57600080fd5b50565b61113681610ee8565b811461114157600080fd5b50565b61114d81610f14565b811461115857600080fd5b50565b61116481610f1e565b811461116f57600080fd5b5056fea2646970667358221220161713005df65ceac8fb6d676fcf0bc9900842a8891ba0d8770ce3bac4e9436964736f6c63430008040033",
  "linkReferences": {},
  "deployedLinkReferences": {}
}