{
  "_format": "hh-sol-artifact-1",
  "contractName": "IDO",
  "sourceName": "contracts/IDO.sol",
  "abi": [
    {
      "inputs": [
        {
          "internalType": "contract IERC20",
          "name": "_stakingToken",
          "type": "address"
        },
        {
          "internalType": "contract IERC20",
          "name": "_rewardToken",
          "type": "address"
        },
        {
          "internalType": "uint64",
          "name": "_vestingPeriod",
          "type": "uint64"
        }
      ],
      "stateMutability": "nonpayable",
      "type": "constructor"
    },
    {
      "anonymous": false,
      "inputs": [
        {
          "indexed": true,
          "internalType": "address",
          "name": "wallet",
          "type": "address"
        },
        {
          "indexed": true,
          "internalType": "contract IERC20",
          "name": "rewardToken",
          "type": "address"
        },
        {
          "indexed": false,
          "internalType": "uint256",
          "name": "amount",
          "type": "uint256"
        }
      ],
      "name": "Claimed",
      "type": "event"
    },
    {
      "anonymous": false,
      "inputs": [
        {
          "indexed": false,
          "internalType": "address",
          "name": "token",
          "type": "address"
        },
        {
          "indexed": false,
          "internalType": "uint256",
          "name": "amount",
          "type": "uint256"
        }
      ],
      "name": "ERC20Released",
      "type": "event"
    },
    {
      "anonymous": false,
      "inputs": [
        {
          "indexed": false,
          "internalType": "uint256",
          "name": "amount",
          "type": "uint256"
        }
      ],
      "name": "EtherReleased",
      "type": "event"
    },
    {
      "anonymous": false,
      "inputs": [
        {
          "indexed": true,
          "internalType": "address",
          "name": "previousOwner",
          "type": "address"
        },
        {
          "indexed": true,
          "internalType": "address",
          "name": "newOwner",
          "type": "address"
        }
      ],
      "name": "OwnershipTransferred",
      "type": "event"
    },
    {
      "anonymous": false,
      "inputs": [
        {
          "indexed": true,
          "internalType": "bytes32",
          "name": "role",
          "type": "bytes32"
        },
        {
          "indexed": true,
          "internalType": "bytes32",
          "name": "previousAdminRole",
          "type": "bytes32"
        },
        {
          "indexed": true,
          "internalType": "bytes32",
          "name": "newAdminRole",
          "type": "bytes32"
        }
      ],
      "name": "RoleAdminChanged",
      "type": "event"
    },
    {
      "anonymous": false,
      "inputs": [
        {
          "indexed": true,
          "internalType": "bytes32",
          "name": "role",
          "type": "bytes32"
        },
        {
          "indexed": true,
          "internalType": "address",
          "name": "account",
          "type": "address"
        },
        {
          "indexed": true,
          "internalType": "address",
          "name": "sender",
          "type": "address"
        }
      ],
      "name": "RoleGranted",
      "type": "event"
    },
    {
      "anonymous": false,
      "inputs": [
        {
          "indexed": true,
          "internalType": "bytes32",
          "name": "role",
          "type": "bytes32"
        },
        {
          "indexed": true,
          "internalType": "address",
          "name": "account",
          "type": "address"
        },
        {
          "indexed": true,
          "internalType": "address",
          "name": "sender",
          "type": "address"
        }
      ],
      "name": "RoleRevoked",
      "type": "event"
    },
    {
      "anonymous": false,
      "inputs": [
        {
          "indexed": true,
          "internalType": "address",
          "name": "wallet",
          "type": "address"
        },
        {
          "indexed": false,
          "internalType": "uint256",
          "name": "amount",
          "type": "uint256"
        },
        {
          "indexed": false,
          "internalType": "uint256",
          "name": "date",
          "type": "uint256"
        }
      ],
      "name": "Stake",
      "type": "event"
    },
    {
      "anonymous": false,
      "inputs": [
        {
          "indexed": true,
          "internalType": "address",
          "name": "wallet",
          "type": "address"
        },
        {
          "indexed": false,
          "internalType": "uint256",
          "name": "amount",
          "type": "uint256"
        },
        {
          "indexed": false,
          "internalType": "uint256",
          "name": "date",
          "type": "uint256"
        }
      ],
      "name": "Withdraw",
      "type": "event"
    },
    {
      "inputs": [],
      "name": "DEFAULT_ADMIN_ROLE",
      "outputs": [
        {
          "internalType": "bytes32",
          "name": "",
          "type": "bytes32"
        }
      ],
      "stateMutability": "view",
      "type": "function"
    },
    {
      "inputs": [],
      "name": "beneficiary",
      "outputs": [
        {
          "internalType": "address",
          "name": "",
          "type": "address"
        }
      ],
      "stateMutability": "view",
      "type": "function"
    },
    {
      "inputs": [
        {
          "internalType": "address",
          "name": "wallet",
          "type": "address"
        }
      ],
      "name": "calculateReward",
      "outputs": [
        {
          "internalType": "uint256",
          "name": "",
          "type": "uint256"
        }
      ],
      "stateMutability": "view",
      "type": "function"
    },
    {
      "inputs": [],
      "name": "claim",
      "outputs": [
        {
          "internalType": "uint256",
          "name": "",
          "type": "uint256"
        }
      ],
      "stateMutability": "nonpayable",
      "type": "function"
    },
    {
      "inputs": [],
      "name": "duration",
      "outputs": [
        {
          "internalType": "uint256",
          "name": "",
          "type": "uint256"
        }
      ],
      "stateMutability": "view",
      "type": "function"
    },
    {
      "inputs": [
        {
          "internalType": "bytes32",
          "name": "role",
          "type": "bytes32"
        }
      ],
      "name": "getRoleAdmin",
      "outputs": [
        {
          "internalType": "bytes32",
          "name": "",
          "type": "bytes32"
        }
      ],
      "stateMutability": "view",
      "type": "function"
    },
    {
      "inputs": [
        {
          "internalType": "bytes32",
          "name": "role",
          "type": "bytes32"
        },
        {
          "internalType": "address",
          "name": "account",
          "type": "address"
        }
      ],
      "name": "grantRole",
      "outputs": [],
      "stateMutability": "nonpayable",
      "type": "function"
    },
    {
      "inputs": [
        {
          "internalType": "bytes32",
          "name": "role",
          "type": "bytes32"
        },
        {
          "internalType": "address",
          "name": "account",
          "type": "address"
        }
      ],
      "name": "hasRole",
      "outputs": [
        {
          "internalType": "bool",
          "name": "",
          "type": "bool"
        }
      ],
      "stateMutability": "view",
      "type": "function"
    },
    {
      "inputs": [],
      "name": "owner",
      "outputs": [
        {
          "internalType": "address",
          "name": "",
          "type": "address"
        }
      ],
      "stateMutability": "view",
      "type": "function"
    },
    {
      "inputs": [
        {
          "internalType": "address",
          "name": "token",
          "type": "address"
        }
      ],
      "name": "release",
      "outputs": [],
      "stateMutability": "nonpayable",
      "type": "function"
    },
    {
      "inputs": [],
      "name": "release",
      "outputs": [],
      "stateMutability": "nonpayable",
      "type": "function"
    },
    {
      "inputs": [],
      "name": "released",
      "outputs": [
        {
          "internalType": "uint256",
          "name": "",
          "type": "uint256"
        }
      ],
      "stateMutability": "view",
      "type": "function"
    },
    {
      "inputs": [
        {
          "internalType": "address",
          "name": "token",
          "type": "address"
        }
      ],
      "name": "released",
      "outputs": [
        {
          "internalType": "uint256",
          "name": "",
          "type": "uint256"
        }
      ],
      "stateMutability": "view",
      "type": "function"
    },
    {
      "inputs": [],
      "name": "renounceOwnership",
      "outputs": [],
      "stateMutability": "nonpayable",
      "type": "function"
    },
    {
      "inputs": [
        {
          "internalType": "bytes32",
          "name": "role",
          "type": "bytes32"
        },
        {
          "internalType": "address",
          "name": "account",
          "type": "address"
        }
      ],
      "name": "renounceRole",
      "outputs": [],
      "stateMutability": "nonpayable",
      "type": "function"
    },
    {
      "inputs": [
        {
          "internalType": "bytes32",
          "name": "role",
          "type": "bytes32"
        },
        {
          "internalType": "address",
          "name": "account",
          "type": "address"
        }
      ],
      "name": "revokeRole",
      "outputs": [],
      "stateMutability": "nonpayable",
      "type": "function"
    },
    {
      "inputs": [],
      "name": "rewardPeriod",
      "outputs": [
        {
          "internalType": "uint256",
          "name": "",
          "type": "uint256"
        }
      ],
      "stateMutability": "view",
      "type": "function"
    },
    {
      "inputs": [],
      "name": "rewardToken",
      "outputs": [
        {
          "internalType": "contract IERC20",
          "name": "",
          "type": "address"
        }
      ],
      "stateMutability": "view",
      "type": "function"
    },
    {
      "inputs": [
        {
          "internalType": "uint256",
          "name": "_amount",
          "type": "uint256"
        }
      ],
      "name": "stake",
      "outputs": [
        {
          "internalType": "uint256",
          "name": "",
          "type": "uint256"
        }
      ],
      "stateMutability": "nonpayable",
      "type": "function"
    },
    {
      "inputs": [],
      "name": "stakingToken",
      "outputs": [
        {
          "internalType": "contract IERC20",
          "name": "",
          "type": "address"
        }
      ],
      "stateMutability": "view",
      "type": "function"
    },
    {
      "inputs": [],
      "name": "start",
      "outputs": [
        {
          "internalType": "uint256",
          "name": "",
          "type": "uint256"
        }
      ],
      "stateMutability": "view",
      "type": "function"
    },
    {
      "inputs": [
        {
          "internalType": "bytes4",
          "name": "interfaceId",
          "type": "bytes4"
        }
      ],
      "name": "supportsInterface",
      "outputs": [
        {
          "internalType": "bool",
          "name": "",
          "type": "bool"
        }
      ],
      "stateMutability": "view",
      "type": "function"
    },
    {
      "inputs": [],
      "name": "totalStaked",
      "outputs": [
        {
          "internalType": "uint256",
          "name": "",
          "type": "uint256"
        }
      ],
      "stateMutability": "view",
      "type": "function"
    },
    {
      "inputs": [
        {
          "internalType": "address",
          "name": "newOwner",
          "type": "address"
        }
      ],
      "name": "transferOwnership",
      "outputs": [],
      "stateMutability": "nonpayable",
      "type": "function"
    },
    {
      "inputs": [
        {
          "internalType": "address",
          "name": "",
          "type": "address"
        }
      ],
      "name": "users",
      "outputs": [
        {
          "internalType": "uint256",
          "name": "stakeTime",
          "type": "uint256"
        },
        {
          "internalType": "uint256",
          "name": "stakeAmount",
          "type": "uint256"
        },
        {
          "internalType": "uint256",
          "name": "claimedRewards",
          "type": "uint256"
        }
      ],
      "stateMutability": "view",
      "type": "function"
    },
    {
      "inputs": [
        {
          "internalType": "uint64",
          "name": "timestamp",
          "type": "uint64"
        }
      ],
      "name": "vestedAmount",
      "outputs": [
        {
          "internalType": "uint256",
          "name": "",
          "type": "uint256"
        }
      ],
      "stateMutability": "view",
      "type": "function"
    },
    {
      "inputs": [
        {
          "internalType": "address",
          "name": "token",
          "type": "address"
        },
        {
          "internalType": "uint64",
          "name": "timestamp",
          "type": "uint64"
        }
      ],
      "name": "vestedAmount",
      "outputs": [
        {
          "internalType": "uint256",
          "name": "",
          "type": "uint256"
        }
      ],
      "stateMutability": "view",
      "type": "function"
    },
    {
      "inputs": [],
      "name": "vestingPeriod",
      "outputs": [
        {
          "internalType": "uint256",
          "name": "",
          "type": "uint256"
        }
      ],
      "stateMutability": "view",
      "type": "function"
    },
    {
      "inputs": [
        {
          "internalType": "uint256",
          "name": "amount",
          "type": "uint256"
        }
      ],
      "name": "withdraw",
      "outputs": [
        {
          "internalType": "uint256",
          "name": "",
          "type": "uint256"
        }
      ],
      "stateMutability": "nonpayable",
      "type": "function"
    },
    {
      "stateMutability": "payable",
      "type": "receive"
    }
  ],
  "bytecode": "0x60e06040523480156200001157600080fd5b506040516200334e3803806200334e833981810160405281019062000037919062000350565b304282600073ffffffffffffffffffffffffffffffffffffffff168373ffffffffffffffffffffffffffffffffffffffff161415620000ad576040517f08c379a0000000000000000000000000000000000000000000000000000000008152600401620000a49062000416565b60405180910390fd5b8273ffffffffffffffffffffffffffffffffffffffff1660808173ffffffffffffffffffffffffffffffffffffffff1660601b815250508167ffffffffffffffff1660a08167ffffffffffffffff1660c01b815250508067ffffffffffffffff1660c08167ffffffffffffffff1660c01b8152505050505062000145620001396200025460201b60201c565b6200025c60201b60201c565b6276a7008167ffffffffffffffff161062000197576040517f08c379a00000000000000000000000000000000000000000000000000000000081526004016200018e90620003f4565b60405180910390fd5b82600760006101000a81548173ffffffffffffffffffffffffffffffffffffffff021916908373ffffffffffffffffffffffffffffffffffffffff16021790555081600860006101000a81548173ffffffffffffffffffffffffffffffffffffffff021916908373ffffffffffffffffffffffffffffffffffffffff1602179055508067ffffffffffffffff166005819055506276a700816200023b919062000449565b67ffffffffffffffff16600681905550505050620005eb565b600033905090565b6000600360009054906101000a900473ffffffffffffffffffffffffffffffffffffffff16905081600360006101000a81548173ffffffffffffffffffffffffffffffffffffffff021916908373ffffffffffffffffffffffffffffffffffffffff1602179055508173ffffffffffffffffffffffffffffffffffffffff168173ffffffffffffffffffffffffffffffffffffffff167f8be0079c531659141344cd1fd0a4f28419497f9722a3daafe3b4186f6b6457e060405160405180910390a35050565b6000815190506200033381620005b7565b92915050565b6000815190506200034a81620005d1565b92915050565b6000806000606084860312156200036657600080fd5b6000620003768682870162000322565b9350506020620003898682870162000322565b92505060406200039c8682870162000339565b9150509250925092565b6000620003b560248362000438565b9150620003c28262000519565b604082019050919050565b6000620003dc602a8362000438565b9150620003e98262000568565b604082019050919050565b600060208201905081810360008301526200040f81620003a6565b9050919050565b600060208201905081810360008301526200043181620003cd565b9050919050565b600082825260208201905092915050565b60006200045682620004d6565b91506200046383620004d6565b92508267ffffffffffffffff03821115620004835762000482620004ea565b5b828201905092915050565b60006200049b82620004b6565b9050919050565b6000620004af826200048e565b9050919050565b600073ffffffffffffffffffffffffffffffffffffffff82169050919050565b600067ffffffffffffffff82169050919050565b7f4e487b7100000000000000000000000000000000000000000000000000000000600052601160045260246000fd5b7f56657374696e6720706572696f64206d75737420626520756e6465722039302060008201527f6461797300000000000000000000000000000000000000000000000000000000602082015250565b7f56657374696e6757616c6c65743a2062656e6566696369617279206973207a6560008201527f726f206164647265737300000000000000000000000000000000000000000000602082015250565b620005c281620004a2565b8114620005ce57600080fd5b50565b620005dc81620004d6565b8114620005e857600080fd5b50565b60805160601c60a05160c01c60c05160c01c612d2a6200062460003960006107d80152600061117901526000610b350152612d2a6000f3fe6080604052600436106101c65760003560e01c8063817b1cd2116100f7578063a694fc3a11610095578063d82e396211610064578063d82e396214610679578063e88dc5b7146106b6578063f2fde38b146106e1578063f7c618c11461070a576101cd565b8063a694fc3a146105a9578063a87430ba146105e6578063be9a655514610625578063d547741f14610650576101cd565b806391d14854116100d157806391d14854146104d957806396132521146105165780639852595c14610541578063a217fddf1461057e576101cd565b8063817b1cd21461046c57806386d1a69f146104975780638da5cb5b146104ae576101cd565b806336568abe11610164578063715018a61161013e578063715018a6146103c257806372f702f3146103d95780637313ee5a14610404578063810ec23b1461042f576101cd565b806336568abe1461034357806338af3eed1461036c5780634e71d92d14610397576101cd565b806319165587116101a05780631916558714610277578063248a9ca3146102a05780632e1a7d4d146102dd5780632f2ff15d1461031a576101cd565b806301ffc9a7146101d25780630a17b06b1461020f5780630fb5a6b41461024c576101cd565b366101cd57005b600080fd5b3480156101de57600080fd5b506101f960048036038101906101f4919061201d565b610735565b6040516102069190612472565b60405180910390f35b34801561021b57600080fd5b5061023660048036038101906102319190612098565b6107af565b6040516102439190612645565b60405180910390f35b34801561025857600080fd5b506102616107d4565b60405161026e9190612645565b60405180910390f35b34801561028357600080fd5b5061029e60048036038101906102999190611f2a565b610806565b005b3480156102ac57600080fd5b506102c760048036038101906102c29190611fb8565b6108cc565b6040516102d4919061248d565b60405180910390f35b3480156102e957600080fd5b5061030460048036038101906102ff9190612046565b6108ec565b6040516103119190612645565b60405180910390f35b34801561032657600080fd5b50610341600480360381019061033c9190611fe1565b610a85565b005b34801561034f57600080fd5b5061036a60048036038101906103659190611fe1565b610aae565b005b34801561037857600080fd5b50610381610b31565b60405161038e91906123f7565b60405180910390f35b3480156103a357600080fd5b506103ac610b59565b6040516103b99190612645565b60405180910390f35b3480156103ce57600080fd5b506103d7610d06565b005b3480156103e557600080fd5b506103ee610d8e565b6040516103fb91906124a8565b60405180910390f35b34801561041057600080fd5b50610419610db4565b6040516104269190612645565b60405180910390f35b34801561043b57600080fd5b5061045660048036038101906104519190611f53565b610dba565b6040516104639190612645565b60405180910390f35b34801561047857600080fd5b50610481610e69565b60405161048e9190612645565b60405180910390f35b3480156104a357600080fd5b506104ac610e6f565b005b3480156104ba57600080fd5b506104c3610ef1565b6040516104d091906123f7565b60405180910390f35b3480156104e557600080fd5b5061050060048036038101906104fb9190611fe1565b610f1b565b60405161050d9190612472565b60405180910390f35b34801561052257600080fd5b5061052b610f86565b6040516105389190612645565b60405180910390f35b34801561054d57600080fd5b5061056860048036038101906105639190611f2a565b610f8f565b6040516105759190612645565b60405180910390f35b34801561058a57600080fd5b50610593610fd8565b6040516105a0919061248d565b60405180910390f35b3480156105b557600080fd5b506105d060048036038101906105cb9190612046565b610fdf565b6040516105dd9190612645565b60405180910390f35b3480156105f257600080fd5b5061060d60048036038101906106089190611f2a565b61114b565b60405161061c93929190612689565b60405180910390f35b34801561063157600080fd5b5061063a611175565b6040516106479190612645565b60405180910390f35b34801561065c57600080fd5b5061067760048036038101906106729190611fe1565b6111a7565b005b34801561068557600080fd5b506106a0600480360381019061069b9190611f2a565b6111d0565b6040516106ad9190612645565b60405180910390f35b3480156106c257600080fd5b506106cb6111d7565b6040516106d89190612645565b60405180910390f35b3480156106ed57600080fd5b5061070860048036038101906107039190611f2a565b6111dd565b005b34801561071657600080fd5b5061071f6112d5565b60405161072c91906124a8565b60405180910390f35b60007f7965db0b000000000000000000000000000000000000000000000000000000007bffffffffffffffffffffffffffffffffffffffffffffffffffffffff1916827bffffffffffffffffffffffffffffffffffffffffffffffffffffffff191614806107a857506107a7826112fb565b5b9050919050565b60006107cd6107bc610f86565b476107c791906126fd565b83611365565b9050919050565b60007f000000000000000000000000000000000000000000000000000000000000000067ffffffffffffffff16905090565b600061081182610f8f565b61081b8342610dba565b61082591906127de565b905080600160008473ffffffffffffffffffffffffffffffffffffffff1673ffffffffffffffffffffffffffffffffffffffff168152602001908152602001600020600082825461087691906126fd565b925050819055507fc0e523490dd523c33b1878c9eb14ff46991e3f5b2cd33710918618f2a39cba1b82826040516108ae929190612449565b60405180910390a16108c8826108c2610b31565b836113ff565b5050565b600060026000838152602001908152602001600020600101549050919050565b600080600960003373ffffffffffffffffffffffffffffffffffffffff1673ffffffffffffffffffffffffffffffffffffffff16815260200190815260200160002060405180606001604052908160008201548152602001600182015481526020016002820154815250509050600554816000015161096b91906126fd565b4210156109ad576040517f08c379a00000000000000000000000000000000000000000000000000000000081526004016109a490612525565b60405180910390fd5b6109fa3384600760009054906101000a900473ffffffffffffffffffffffffffffffffffffffff1673ffffffffffffffffffffffffffffffffffffffff166113ff9092919063ffffffff16565b8281602001818151610a0c91906127de565b915081815250508260046000828254610a2591906127de565b925050819055503373ffffffffffffffffffffffffffffffffffffffff167ff279e6a1f5e320cca91135676d9cb6e44ca8a08c0b88342bcdb1144f6511b5688442604051610a74929190612660565b60405180910390a282915050919050565b610a8e826108cc565b610a9f81610a9a611485565b61148d565b610aa9838361152a565b505050565b610ab6611485565b73ffffffffffffffffffffffffffffffffffffffff168173ffffffffffffffffffffffffffffffffffffffff1614610b23576040517f08c379a0000000000000000000000000000000000000000000000000000000008152600401610b1a90612625565b60405180910390fd5b610b2d828261160b565b5050565b60007f0000000000000000000000000000000000000000000000000000000000000000905090565b600080600960003373ffffffffffffffffffffffffffffffffffffffff1673ffffffffffffffffffffffffffffffffffffffff16815260200190815260200160002090506005548160000154610baf91906126fd565b421015610bf1576040517f08c379a0000000000000000000000000000000000000000000000000000000008152600401610be890612525565b60405180910390fd5b600060028260010154610c049190612784565b905042826000018190555080826002016000828254610c2391906126fd565b92505081905550610c773382600860009054906101000a900473ffffffffffffffffffffffffffffffffffffffff1673ffffffffffffffffffffffffffffffffffffffff166113ff9092919063ffffffff16565b600860009054906101000a900473ffffffffffffffffffffffffffffffffffffffff1673ffffffffffffffffffffffffffffffffffffffff163373ffffffffffffffffffffffffffffffffffffffff167ff7a40077ff7a04c7e61f6f26fb13774259ddf1b6bce9ecf26a8276cdd399268383604051610cf69190612645565b60405180910390a3809250505090565b610d0e611485565b73ffffffffffffffffffffffffffffffffffffffff16610d2c610ef1565b73ffffffffffffffffffffffffffffffffffffffff1614610d82576040517f08c379a0000000000000000000000000000000000000000000000000000000008152600401610d79906125a5565b60405180910390fd5b610d8c60006116ed565b565b600760009054906101000a900473ffffffffffffffffffffffffffffffffffffffff1681565b60055481565b6000610e61610dc884610f8f565b8473ffffffffffffffffffffffffffffffffffffffff166370a08231306040518263ffffffff1660e01b8152600401610e0191906123f7565b60206040518083038186803b158015610e1957600080fd5b505afa158015610e2d573d6000803e3d6000fd5b505050506040513d601f19601f82011682018060405250810190610e51919061206f565b610e5b91906126fd565b83611365565b905092915050565b60045481565b6000610e79610f86565b610e82426107af565b610e8c91906127de565b905080600080828254610e9f91906126fd565b925050819055507fda9d4e5f101b8b9b1c5b76d0c5a9f7923571acfc02376aa076b75a8c080c956b81604051610ed59190612645565b60405180910390a1610eee610ee8610b31565b826117b3565b50565b6000600360009054906101000a900473ffffffffffffffffffffffffffffffffffffffff16905090565b60006002600084815260200190815260200160002060000160008373ffffffffffffffffffffffffffffffffffffffff1673ffffffffffffffffffffffffffffffffffffffff16815260200190815260200160002060009054906101000a900460ff16905092915050565b60008054905090565b6000600160008373ffffffffffffffffffffffffffffffffffffffff1673ffffffffffffffffffffffffffffffffffffffff168152602001908152602001600020549050919050565b6000801b81565b6000808211611023576040517f08c379a000000000000000000000000000000000000000000000000000000000815260040161101a906125c5565b60405180910390fd5b6000600960003373ffffffffffffffffffffffffffffffffffffffff1673ffffffffffffffffffffffffffffffffffffffff16815260200190815260200160002090508281600101600082825461107a91906126fd565b92505081905550428160000181905550826004600082825461109c91906126fd565b925050819055506110f2333085600760009054906101000a900473ffffffffffffffffffffffffffffffffffffffff1673ffffffffffffffffffffffffffffffffffffffff166118a7909392919063ffffffff16565b3373ffffffffffffffffffffffffffffffffffffffff167f5af417134f72a9d41143ace85b0a26dce6f550f894f2cbc1eeee8810603d91b6844260405161113a929190612660565b60405180910390a282915050919050565b60096020528060005260406000206000915090508060000154908060010154908060020154905083565b60007f000000000000000000000000000000000000000000000000000000000000000067ffffffffffffffff16905090565b6111b0826108cc565b6111c1816111bc611485565b61148d565b6111cb838361160b565b505050565b6000919050565b60065481565b6111e5611485565b73ffffffffffffffffffffffffffffffffffffffff16611203610ef1565b73ffffffffffffffffffffffffffffffffffffffff1614611259576040517f08c379a0000000000000000000000000000000000000000000000000000000008152600401611250906125a5565b60405180910390fd5b600073ffffffffffffffffffffffffffffffffffffffff168173ffffffffffffffffffffffffffffffffffffffff1614156112c9576040517f08c379a00000000000000000000000000000000000000000000000000000000081526004016112c090612505565b60405180910390fd5b6112d2816116ed565b50565b600860009054906101000a900473ffffffffffffffffffffffffffffffffffffffff1681565b60007f01ffc9a7000000000000000000000000000000000000000000000000000000007bffffffffffffffffffffffffffffffffffffffffffffffffffffffff1916827bffffffffffffffffffffffffffffffffffffffffffffffffffffffff1916149050919050565b600061136f611175565b8267ffffffffffffffff16101561138957600090506113f9565b6113916107d4565b611399611175565b6113a391906126fd565b8267ffffffffffffffff1611156113bc578290506113f9565b6113c46107d4565b6113cc611175565b8367ffffffffffffffff166113e191906127de565b846113ec9190612784565b6113f69190612753565b90505b92915050565b6114808363a9059cbb60e01b848460405160240161141e929190612449565b604051602081830303815290604052907bffffffffffffffffffffffffffffffffffffffffffffffffffffffff19166020820180517bffffffffffffffffffffffffffffffffffffffffffffffffffffffff8381831617835250505050611930565b505050565b600033905090565b6114978282610f1b565b611526576114bc8173ffffffffffffffffffffffffffffffffffffffff1660146119f7565b6114ca8360001c60206119f7565b6040516020016114db9291906123bd565b6040516020818303038152906040526040517f08c379a000000000000000000000000000000000000000000000000000000000815260040161151d91906124c3565b60405180910390fd5b5050565b6115348282610f1b565b6116075760016002600084815260200190815260200160002060000160008373ffffffffffffffffffffffffffffffffffffffff1673ffffffffffffffffffffffffffffffffffffffff16815260200190815260200160002060006101000a81548160ff0219169083151502179055506115ac611485565b73ffffffffffffffffffffffffffffffffffffffff168173ffffffffffffffffffffffffffffffffffffffff16837f2f8788117e7eff1d82e926ec794901d17c78024a50270940304540a733656f0d60405160405180910390a45b5050565b6116158282610f1b565b156116e95760006002600084815260200190815260200160002060000160008373ffffffffffffffffffffffffffffffffffffffff1673ffffffffffffffffffffffffffffffffffffffff16815260200190815260200160002060006101000a81548160ff02191690831515021790555061168e611485565b73ffffffffffffffffffffffffffffffffffffffff168173ffffffffffffffffffffffffffffffffffffffff16837ff6391f5c32d9c69d2a47ea670b442974b53935d1edc7fd64eb21e047a839171b60405160405180910390a45b5050565b6000600360009054906101000a900473ffffffffffffffffffffffffffffffffffffffff16905081600360006101000a81548173ffffffffffffffffffffffffffffffffffffffff021916908373ffffffffffffffffffffffffffffffffffffffff1602179055508173ffffffffffffffffffffffffffffffffffffffff168173ffffffffffffffffffffffffffffffffffffffff167f8be0079c531659141344cd1fd0a4f28419497f9722a3daafe3b4186f6b6457e060405160405180910390a35050565b804710156117f6576040517f08c379a00000000000000000000000000000000000000000000000000000000081526004016117ed90612565565b60405180910390fd5b60008273ffffffffffffffffffffffffffffffffffffffff168260405161181c906123a8565b60006040518083038185875af1925050503d8060008114611859576040519150601f19603f3d011682016040523d82523d6000602084013e61185e565b606091505b50509050806118a2576040517f08c379a000000000000000000000000000000000000000000000000000000000815260040161189990612545565b60405180910390fd5b505050565b61192a846323b872dd60e01b8585856040516024016118c893929190612412565b604051602081830303815290604052907bffffffffffffffffffffffffffffffffffffffffffffffffffffffff19166020820180517bffffffffffffffffffffffffffffffffffffffffffffffffffffffff8381831617835250505050611930565b50505050565b6000611992826040518060400160405280602081526020017f5361666545524332303a206c6f772d6c6576656c2063616c6c206661696c65648152508573ffffffffffffffffffffffffffffffffffffffff16611cf19092919063ffffffff16565b90506000815111156119f257808060200190518101906119b29190611f8f565b6119f1576040517f08c379a00000000000000000000000000000000000000000000000000000000081526004016119e890612605565b60405180910390fd5b5b505050565b606060006002836002611a0a9190612784565b611a1491906126fd565b67ffffffffffffffff811115611a53577f4e487b7100000000000000000000000000000000000000000000000000000000600052604160045260246000fd5b6040519080825280601f01601f191660200182016040528015611a855781602001600182028036833780820191505090505b5090507f300000000000000000000000000000000000000000000000000000000000000081600081518110611ae3577f4e487b7100000000000000000000000000000000000000000000000000000000600052603260045260246000fd5b60200101907effffffffffffffffffffffffffffffffffffffffffffffffffffffffffffff1916908160001a9053507f780000000000000000000000000000000000000000000000000000000000000081600181518110611b6d577f4e487b7100000000000000000000000000000000000000000000000000000000600052603260045260246000fd5b60200101907effffffffffffffffffffffffffffffffffffffffffffffffffffffffffffff1916908160001a90535060006001846002611bad9190612784565b611bb791906126fd565b90505b6001811115611ca3577f3031323334353637383961626364656600000000000000000000000000000000600f861660108110611c1f577f4e487b7100000000000000000000000000000000000000000000000000000000600052603260045260246000fd5b1a60f81b828281518110611c5c577f4e487b7100000000000000000000000000000000000000000000000000000000600052603260045260246000fd5b60200101907effffffffffffffffffffffffffffffffffffffffffffffffffffffffffffff1916908160001a905350600485901c945080611c9c906128fb565b9050611bba565b5060008414611ce7576040517f08c379a0000000000000000000000000000000000000000000000000000000008152600401611cde906124e5565b60405180910390fd5b8091505092915050565b6060611d008484600085611d09565b90509392505050565b606082471015611d4e576040517f08c379a0000000000000000000000000000000000000000000000000000000008152600401611d4590612585565b60405180910390fd5b611d5785611e1d565b611d96576040517f08c379a0000000000000000000000000000000000000000000000000000000008152600401611d8d906125e5565b60405180910390fd5b6000808673ffffffffffffffffffffffffffffffffffffffff168587604051611dbf9190612391565b60006040518083038185875af1925050503d8060008114611dfc576040519150601f19603f3d011682016040523d82523d6000602084013e611e01565b606091505b5091509150611e11828286611e30565b92505050949350505050565b600080823b905060008111915050919050565b60608315611e4057829050611e90565b600083511115611e535782518084602001fd5b816040517f08c379a0000000000000000000000000000000000000000000000000000000008152600401611e8791906124c3565b60405180910390fd5b9392505050565b600081359050611ea681612c6a565b92915050565b600081519050611ebb81612c81565b92915050565b600081359050611ed081612c98565b92915050565b600081359050611ee581612caf565b92915050565b600081359050611efa81612cc6565b92915050565b600081519050611f0f81612cc6565b92915050565b600081359050611f2481612cdd565b92915050565b600060208284031215611f3c57600080fd5b6000611f4a84828501611e97565b91505092915050565b60008060408385031215611f6657600080fd5b6000611f7485828601611e97565b9250506020611f8585828601611f15565b9150509250929050565b600060208284031215611fa157600080fd5b6000611faf84828501611eac565b91505092915050565b600060208284031215611fca57600080fd5b6000611fd884828501611ec1565b91505092915050565b60008060408385031215611ff457600080fd5b600061200285828601611ec1565b925050602061201385828601611e97565b9150509250929050565b60006020828403121561202f57600080fd5b600061203d84828501611ed6565b91505092915050565b60006020828403121561205857600080fd5b600061206684828501611eeb565b91505092915050565b60006020828403121561208157600080fd5b600061208f84828501611f00565b91505092915050565b6000602082840312156120aa57600080fd5b60006120b884828501611f15565b91505092915050565b6120ca81612812565b82525050565b6120d981612824565b82525050565b6120e881612830565b82525050565b60006120f9826126c0565b61210381856126d6565b93506121138185602086016128c8565b80840191505092915050565b612128816128a4565b82525050565b6000612139826126cb565b61214381856126e1565b93506121538185602086016128c8565b61215c81612983565b840191505092915050565b6000612172826126cb565b61217c81856126f2565b935061218c8185602086016128c8565b80840191505092915050565b60006121a56020836126e1565b91506121b082612994565b602082019050919050565b60006121c86026836126e1565b91506121d3826129bd565b604082019050919050565b60006121eb6013836126e1565b91506121f682612a0c565b602082019050919050565b600061220e603a836126e1565b915061221982612a35565b604082019050919050565b6000612231601d836126e1565b915061223c82612a84565b602082019050919050565b60006122546026836126e1565b915061225f82612aad565b604082019050919050565b60006122776020836126e1565b915061228282612afc565b602082019050919050565b600061229a6015836126e1565b91506122a582612b25565b602082019050919050565b60006122bd6000836126d6565b91506122c882612b4e565b600082019050919050565b60006122e0601d836126e1565b91506122eb82612b51565b602082019050919050565b60006123036017836126f2565b915061230e82612b7a565b601782019050919050565b6000612326602a836126e1565b915061233182612ba3565b604082019050919050565b60006123496011836126f2565b915061235482612bf2565b601182019050919050565b600061236c602f836126e1565b915061237782612c1b565b604082019050919050565b61238b81612886565b82525050565b600061239d82846120ee565b915081905092915050565b60006123b3826122b0565b9150819050919050565b60006123c8826122f6565b91506123d48285612167565b91506123df8261233c565b91506123eb8284612167565b91508190509392505050565b600060208201905061240c60008301846120c1565b92915050565b600060608201905061242760008301866120c1565b61243460208301856120c1565b6124416040830184612382565b949350505050565b600060408201905061245e60008301856120c1565b61246b6020830184612382565b9392505050565b600060208201905061248760008301846120d0565b92915050565b60006020820190506124a260008301846120df565b92915050565b60006020820190506124bd600083018461211f565b92915050565b600060208201905081810360008301526124dd818461212e565b905092915050565b600060208201905081810360008301526124fe81612198565b9050919050565b6000602082019050818103600083015261251e816121bb565b9050919050565b6000602082019050818103600083015261253e816121de565b9050919050565b6000602082019050818103600083015261255e81612201565b9050919050565b6000602082019050818103600083015261257e81612224565b9050919050565b6000602082019050818103600083015261259e81612247565b9050919050565b600060208201905081810360008301526125be8161226a565b9050919050565b600060208201905081810360008301526125de8161228d565b9050919050565b600060208201905081810360008301526125fe816122d3565b9050919050565b6000602082019050818103600083015261261e81612319565b9050919050565b6000602082019050818103600083015261263e8161235f565b9050919050565b600060208201905061265a6000830184612382565b92915050565b60006040820190506126756000830185612382565b6126826020830184612382565b9392505050565b600060608201905061269e6000830186612382565b6126ab6020830185612382565b6126b86040830184612382565b949350505050565b600081519050919050565b600081519050919050565b600081905092915050565b600082825260208201905092915050565b600081905092915050565b600061270882612886565b915061271383612886565b9250827fffffffffffffffffffffffffffffffffffffffffffffffffffffffffffffffff0382111561274857612747612925565b5b828201905092915050565b600061275e82612886565b915061276983612886565b92508261277957612778612954565b5b828204905092915050565b600061278f82612886565b915061279a83612886565b9250817fffffffffffffffffffffffffffffffffffffffffffffffffffffffffffffffff04831182151516156127d3576127d2612925565b5b828202905092915050565b60006127e982612886565b91506127f483612886565b92508282101561280757612806612925565b5b828203905092915050565b600061281d82612866565b9050919050565b60008115159050919050565b6000819050919050565b60007fffffffff0000000000000000000000000000000000000000000000000000000082169050919050565b600073ffffffffffffffffffffffffffffffffffffffff82169050919050565b6000819050919050565b600067ffffffffffffffff82169050919050565b60006128af826128b6565b9050919050565b60006128c182612866565b9050919050565b60005b838110156128e65780820151818401526020810190506128cb565b838111156128f5576000848401525b50505050565b600061290682612886565b9150600082141561291a57612919612925565b5b600182039050919050565b7f4e487b7100000000000000000000000000000000000000000000000000000000600052601160045260246000fd5b7f4e487b7100000000000000000000000000000000000000000000000000000000600052601260045260246000fd5b6000601f19601f8301169050919050565b7f537472696e67733a20686578206c656e67746820696e73756666696369656e74600082015250565b7f4f776e61626c653a206e6577206f776e657220697320746865207a65726f206160008201527f6464726573730000000000000000000000000000000000000000000000000000602082015250565b7f546f6b656e73207374696c6c206c6f636b656400000000000000000000000000600082015250565b7f416464726573733a20756e61626c6520746f2073656e642076616c75652c207260008201527f6563697069656e74206d61792068617665207265766572746564000000000000602082015250565b7f416464726573733a20696e73756666696369656e742062616c616e6365000000600082015250565b7f416464726573733a20696e73756666696369656e742062616c616e636520666f60008201527f722063616c6c0000000000000000000000000000000000000000000000000000602082015250565b7f4f776e61626c653a2063616c6c6572206973206e6f7420746865206f776e6572600082015250565b7f416d6f756e74206d757374206265206f76657220300000000000000000000000600082015250565b50565b7f416464726573733a2063616c6c20746f206e6f6e2d636f6e7472616374000000600082015250565b7f416363657373436f6e74726f6c3a206163636f756e7420000000000000000000600082015250565b7f5361666545524332303a204552433230206f7065726174696f6e20646964206e60008201527f6f74207375636365656400000000000000000000000000000000000000000000602082015250565b7f206973206d697373696e6720726f6c6520000000000000000000000000000000600082015250565b7f416363657373436f6e74726f6c3a2063616e206f6e6c792072656e6f756e636560008201527f20726f6c657320666f722073656c660000000000000000000000000000000000602082015250565b612c7381612812565b8114612c7e57600080fd5b50565b612c8a81612824565b8114612c9557600080fd5b50565b612ca181612830565b8114612cac57600080fd5b50565b612cb88161283a565b8114612cc357600080fd5b50565b612ccf81612886565b8114612cda57600080fd5b50565b612ce681612890565b8114612cf157600080fd5b5056fea2646970667358221220d94357e8a9df06939b6182415d12d7695b97e3821881fd5059af6f7b81a2978864736f6c63430008040033",
  "linkReferences": {},
  "deployedLinkReferences": {}
}