{
  "_format": "hh-sol-artifact-1",
  "contractName": "IDO",
  "sourceName": "contracts/IDO.sol",
  "abi": [
    {
      "inputs": [
        {
          "internalType": "contract IERC20",
          "name": "_stakingToken",
          "type": "address"
        },
        {
          "internalType": "contract IERC20",
          "name": "_rewardToken",
          "type": "address"
        },
        {
          "internalType": "uint64",
          "name": "_vestingPeriod",
          "type": "uint64"
        }
      ],
      "stateMutability": "nonpayable",
      "type": "constructor"
    },
    {
      "anonymous": false,
      "inputs": [
        {
          "indexed": true,
          "internalType": "address",
          "name": "wallet",
          "type": "address"
        },
        {
          "indexed": false,
          "internalType": "uint256",
          "name": "amount",
          "type": "uint256"
        },
        {
          "indexed": false,
          "internalType": "uint256",
          "name": "date",
          "type": "uint256"
        }
      ],
      "name": "Claimed",
      "type": "event"
    },
    {
      "anonymous": false,
      "inputs": [
        {
          "indexed": false,
          "internalType": "address",
          "name": "token",
          "type": "address"
        },
        {
          "indexed": false,
          "internalType": "uint256",
          "name": "amount",
          "type": "uint256"
        }
      ],
      "name": "ERC20Released",
      "type": "event"
    },
    {
      "anonymous": false,
      "inputs": [
        {
          "indexed": false,
          "internalType": "uint256",
          "name": "amount",
          "type": "uint256"
        }
      ],
      "name": "EtherReleased",
      "type": "event"
    },
    {
      "anonymous": false,
      "inputs": [
        {
          "indexed": true,
          "internalType": "address",
          "name": "previousOwner",
          "type": "address"
        },
        {
          "indexed": true,
          "internalType": "address",
          "name": "newOwner",
          "type": "address"
        }
      ],
      "name": "OwnershipTransferred",
      "type": "event"
    },
    {
      "anonymous": false,
      "inputs": [
        {
          "indexed": true,
          "internalType": "bytes32",
          "name": "role",
          "type": "bytes32"
        },
        {
          "indexed": true,
          "internalType": "bytes32",
          "name": "previousAdminRole",
          "type": "bytes32"
        },
        {
          "indexed": true,
          "internalType": "bytes32",
          "name": "newAdminRole",
          "type": "bytes32"
        }
      ],
      "name": "RoleAdminChanged",
      "type": "event"
    },
    {
      "anonymous": false,
      "inputs": [
        {
          "indexed": true,
          "internalType": "bytes32",
          "name": "role",
          "type": "bytes32"
        },
        {
          "indexed": true,
          "internalType": "address",
          "name": "account",
          "type": "address"
        },
        {
          "indexed": true,
          "internalType": "address",
          "name": "sender",
          "type": "address"
        }
      ],
      "name": "RoleGranted",
      "type": "event"
    },
    {
      "anonymous": false,
      "inputs": [
        {
          "indexed": true,
          "internalType": "bytes32",
          "name": "role",
          "type": "bytes32"
        },
        {
          "indexed": true,
          "internalType": "address",
          "name": "account",
          "type": "address"
        },
        {
          "indexed": true,
          "internalType": "address",
          "name": "sender",
          "type": "address"
        }
      ],
      "name": "RoleRevoked",
      "type": "event"
    },
    {
      "anonymous": false,
      "inputs": [
        {
          "indexed": true,
          "internalType": "address",
          "name": "wallet",
          "type": "address"
        },
        {
          "indexed": false,
          "internalType": "uint256",
          "name": "amount",
          "type": "uint256"
        },
        {
          "indexed": false,
          "internalType": "uint256",
          "name": "date",
          "type": "uint256"
        }
      ],
      "name": "Stake",
      "type": "event"
    },
    {
      "anonymous": false,
      "inputs": [
        {
          "indexed": true,
          "internalType": "address",
          "name": "wallet",
          "type": "address"
        },
        {
          "indexed": false,
          "internalType": "uint256",
          "name": "amount",
          "type": "uint256"
        },
        {
          "indexed": false,
          "internalType": "uint256",
          "name": "date",
          "type": "uint256"
        }
      ],
      "name": "Withdraw",
      "type": "event"
    },
    {
      "inputs": [],
      "name": "DEFAULT_ADMIN_ROLE",
      "outputs": [
        {
          "internalType": "bytes32",
          "name": "",
          "type": "bytes32"
        }
      ],
      "stateMutability": "view",
      "type": "function"
    },
    {
      "inputs": [],
      "name": "beneficiary",
      "outputs": [
        {
          "internalType": "address",
          "name": "",
          "type": "address"
        }
      ],
      "stateMutability": "view",
      "type": "function"
    },
    {
      "inputs": [
        {
          "internalType": "address",
          "name": "wallet",
          "type": "address"
        }
      ],
      "name": "calculateReward",
      "outputs": [
        {
          "internalType": "uint256",
          "name": "",
          "type": "uint256"
        }
      ],
      "stateMutability": "view",
      "type": "function"
    },
    {
      "inputs": [],
      "name": "claim",
      "outputs": [
        {
          "internalType": "uint256",
          "name": "",
          "type": "uint256"
        }
      ],
      "stateMutability": "nonpayable",
      "type": "function"
    },
    {
      "inputs": [],
      "name": "duration",
      "outputs": [
        {
          "internalType": "uint256",
          "name": "",
          "type": "uint256"
        }
      ],
      "stateMutability": "view",
      "type": "function"
    },
    {
      "inputs": [
        {
          "internalType": "bytes32",
          "name": "role",
          "type": "bytes32"
        }
      ],
      "name": "getRoleAdmin",
      "outputs": [
        {
          "internalType": "bytes32",
          "name": "",
          "type": "bytes32"
        }
      ],
      "stateMutability": "view",
      "type": "function"
    },
    {
      "inputs": [
        {
          "internalType": "bytes32",
          "name": "role",
          "type": "bytes32"
        },
        {
          "internalType": "address",
          "name": "account",
          "type": "address"
        }
      ],
      "name": "grantRole",
      "outputs": [],
      "stateMutability": "nonpayable",
      "type": "function"
    },
    {
      "inputs": [
        {
          "internalType": "bytes32",
          "name": "role",
          "type": "bytes32"
        },
        {
          "internalType": "address",
          "name": "account",
          "type": "address"
        }
      ],
      "name": "hasRole",
      "outputs": [
        {
          "internalType": "bool",
          "name": "",
          "type": "bool"
        }
      ],
      "stateMutability": "view",
      "type": "function"
    },
    {
      "inputs": [],
      "name": "owner",
      "outputs": [
        {
          "internalType": "address",
          "name": "",
          "type": "address"
        }
      ],
      "stateMutability": "view",
      "type": "function"
    },
    {
      "inputs": [
        {
          "internalType": "address",
          "name": "token",
          "type": "address"
        }
      ],
      "name": "release",
      "outputs": [],
      "stateMutability": "nonpayable",
      "type": "function"
    },
    {
      "inputs": [],
      "name": "release",
      "outputs": [],
      "stateMutability": "nonpayable",
      "type": "function"
    },
    {
      "inputs": [],
      "name": "released",
      "outputs": [
        {
          "internalType": "uint256",
          "name": "",
          "type": "uint256"
        }
      ],
      "stateMutability": "view",
      "type": "function"
    },
    {
      "inputs": [
        {
          "internalType": "address",
          "name": "token",
          "type": "address"
        }
      ],
      "name": "released",
      "outputs": [
        {
          "internalType": "uint256",
          "name": "",
          "type": "uint256"
        }
      ],
      "stateMutability": "view",
      "type": "function"
    },
    {
      "inputs": [],
      "name": "renounceOwnership",
      "outputs": [],
      "stateMutability": "nonpayable",
      "type": "function"
    },
    {
      "inputs": [
        {
          "internalType": "bytes32",
          "name": "role",
          "type": "bytes32"
        },
        {
          "internalType": "address",
          "name": "account",
          "type": "address"
        }
      ],
      "name": "renounceRole",
      "outputs": [],
      "stateMutability": "nonpayable",
      "type": "function"
    },
    {
      "inputs": [
        {
          "internalType": "bytes32",
          "name": "role",
          "type": "bytes32"
        },
        {
          "internalType": "address",
          "name": "account",
          "type": "address"
        }
      ],
      "name": "revokeRole",
      "outputs": [],
      "stateMutability": "nonpayable",
      "type": "function"
    },
    {
      "inputs": [],
      "name": "rewardPeriod",
      "outputs": [
        {
          "internalType": "uint256",
          "name": "",
          "type": "uint256"
        }
      ],
      "stateMutability": "view",
      "type": "function"
    },
    {
      "inputs": [],
      "name": "rewardToken",
      "outputs": [
        {
          "internalType": "contract IERC20",
          "name": "",
          "type": "address"
        }
      ],
      "stateMutability": "view",
      "type": "function"
    },
    {
      "inputs": [
        {
          "internalType": "uint256",
          "name": "_amount",
          "type": "uint256"
        }
      ],
      "name": "stake",
      "outputs": [
        {
          "internalType": "uint256",
          "name": "",
          "type": "uint256"
        }
      ],
      "stateMutability": "nonpayable",
      "type": "function"
    },
    {
      "inputs": [],
      "name": "stakingToken",
      "outputs": [
        {
          "internalType": "contract IERC20",
          "name": "",
          "type": "address"
        }
      ],
      "stateMutability": "view",
      "type": "function"
    },
    {
      "inputs": [],
      "name": "start",
      "outputs": [
        {
          "internalType": "uint256",
          "name": "",
          "type": "uint256"
        }
      ],
      "stateMutability": "view",
      "type": "function"
    },
    {
      "inputs": [
        {
          "internalType": "bytes4",
          "name": "interfaceId",
          "type": "bytes4"
        }
      ],
      "name": "supportsInterface",
      "outputs": [
        {
          "internalType": "bool",
          "name": "",
          "type": "bool"
        }
      ],
      "stateMutability": "view",
      "type": "function"
    },
    {
      "inputs": [],
      "name": "totalStaked",
      "outputs": [
        {
          "internalType": "uint256",
          "name": "",
          "type": "uint256"
        }
      ],
      "stateMutability": "view",
      "type": "function"
    },
    {
      "inputs": [
        {
          "internalType": "address",
          "name": "newOwner",
          "type": "address"
        }
      ],
      "name": "transferOwnership",
      "outputs": [],
      "stateMutability": "nonpayable",
      "type": "function"
    },
    {
      "inputs": [
        {
          "internalType": "address",
          "name": "",
          "type": "address"
        }
      ],
      "name": "users",
      "outputs": [
        {
          "internalType": "uint256",
          "name": "stakeTime",
          "type": "uint256"
        },
        {
          "internalType": "uint256",
          "name": "stakeAmount",
          "type": "uint256"
        },
        {
          "internalType": "uint256",
          "name": "claimedRewards",
          "type": "uint256"
        }
      ],
      "stateMutability": "view",
      "type": "function"
    },
    {
      "inputs": [
        {
          "internalType": "uint64",
          "name": "timestamp",
          "type": "uint64"
        }
      ],
      "name": "vestedAmount",
      "outputs": [
        {
          "internalType": "uint256",
          "name": "",
          "type": "uint256"
        }
      ],
      "stateMutability": "view",
      "type": "function"
    },
    {
      "inputs": [
        {
          "internalType": "address",
          "name": "token",
          "type": "address"
        },
        {
          "internalType": "uint64",
          "name": "timestamp",
          "type": "uint64"
        }
      ],
      "name": "vestedAmount",
      "outputs": [
        {
          "internalType": "uint256",
          "name": "",
          "type": "uint256"
        }
      ],
      "stateMutability": "view",
      "type": "function"
    },
    {
      "inputs": [],
      "name": "vestingPeriod",
      "outputs": [
        {
          "internalType": "uint256",
          "name": "",
          "type": "uint256"
        }
      ],
      "stateMutability": "view",
      "type": "function"
    },
    {
      "inputs": [
        {
          "internalType": "uint256",
          "name": "amount",
          "type": "uint256"
        }
      ],
      "name": "withdraw",
      "outputs": [
        {
          "internalType": "uint256",
          "name": "",
          "type": "uint256"
        }
      ],
      "stateMutability": "nonpayable",
      "type": "function"
    },
    {
      "stateMutability": "payable",
      "type": "receive"
    }
  ],
  "bytecode": "0x60e06040523480156200001157600080fd5b50604051620032f0380380620032f0833981810160405281019062000037919062000350565b304282600073ffffffffffffffffffffffffffffffffffffffff168373ffffffffffffffffffffffffffffffffffffffff161415620000ad576040517f08c379a0000000000000000000000000000000000000000000000000000000008152600401620000a49062000416565b60405180910390fd5b8273ffffffffffffffffffffffffffffffffffffffff1660808173ffffffffffffffffffffffffffffffffffffffff1660601b815250508167ffffffffffffffff1660a08167ffffffffffffffff1660c01b815250508067ffffffffffffffff1660c08167ffffffffffffffff1660c01b8152505050505062000145620001396200025460201b60201c565b6200025c60201b60201c565b6276a7008167ffffffffffffffff161062000197576040517f08c379a00000000000000000000000000000000000000000000000000000000081526004016200018e90620003f4565b60405180910390fd5b82600760006101000a81548173ffffffffffffffffffffffffffffffffffffffff021916908373ffffffffffffffffffffffffffffffffffffffff16021790555081600860006101000a81548173ffffffffffffffffffffffffffffffffffffffff021916908373ffffffffffffffffffffffffffffffffffffffff1602179055508067ffffffffffffffff166005819055506276a700816200023b919062000449565b67ffffffffffffffff16600681905550505050620005eb565b600033905090565b6000600360009054906101000a900473ffffffffffffffffffffffffffffffffffffffff16905081600360006101000a81548173ffffffffffffffffffffffffffffffffffffffff021916908373ffffffffffffffffffffffffffffffffffffffff1602179055508173ffffffffffffffffffffffffffffffffffffffff168173ffffffffffffffffffffffffffffffffffffffff167f8be0079c531659141344cd1fd0a4f28419497f9722a3daafe3b4186f6b6457e060405160405180910390a35050565b6000815190506200033381620005b7565b92915050565b6000815190506200034a81620005d1565b92915050565b6000806000606084860312156200036657600080fd5b6000620003768682870162000322565b9350506020620003898682870162000322565b92505060406200039c8682870162000339565b9150509250925092565b6000620003b560248362000438565b9150620003c28262000519565b604082019050919050565b6000620003dc602a8362000438565b9150620003e98262000568565b604082019050919050565b600060208201905081810360008301526200040f81620003a6565b9050919050565b600060208201905081810360008301526200043181620003cd565b9050919050565b600082825260208201905092915050565b60006200045682620004d6565b91506200046383620004d6565b92508267ffffffffffffffff03821115620004835762000482620004ea565b5b828201905092915050565b60006200049b82620004b6565b9050919050565b6000620004af826200048e565b9050919050565b600073ffffffffffffffffffffffffffffffffffffffff82169050919050565b600067ffffffffffffffff82169050919050565b7f4e487b7100000000000000000000000000000000000000000000000000000000600052601160045260246000fd5b7f56657374696e6720706572696f64206d75737420626520756e6465722039302060008201527f6461797300000000000000000000000000000000000000000000000000000000602082015250565b7f56657374696e6757616c6c65743a2062656e6566696369617279206973207a6560008201527f726f206164647265737300000000000000000000000000000000000000000000602082015250565b620005c281620004a2565b8114620005ce57600080fd5b50565b620005dc81620004d6565b8114620005e857600080fd5b50565b60805160601c60a05160c01c60c05160c01c612ccc6200062460003960006107d80152600061111b01526000610b0e0152612ccc6000f3fe6080604052600436106101c65760003560e01c8063817b1cd2116100f7578063a694fc3a11610095578063d82e396211610064578063d82e396214610679578063e88dc5b7146106b6578063f2fde38b146106e1578063f7c618c11461070a576101cd565b8063a694fc3a146105a9578063a87430ba146105e6578063be9a655514610625578063d547741f14610650576101cd565b806391d14854116100d157806391d14854146104d957806396132521146105165780639852595c14610541578063a217fddf1461057e576101cd565b8063817b1cd21461046c57806386d1a69f146104975780638da5cb5b146104ae576101cd565b806336568abe11610164578063715018a61161013e578063715018a6146103c257806372f702f3146103d95780637313ee5a14610404578063810ec23b1461042f576101cd565b806336568abe1461034357806338af3eed1461036c5780634e71d92d14610397576101cd565b806319165587116101a05780631916558714610277578063248a9ca3146102a05780632e1a7d4d146102dd5780632f2ff15d1461031a576101cd565b806301ffc9a7146101d25780630a17b06b1461020f5780630fb5a6b41461024c576101cd565b366101cd57005b600080fd5b3480156101de57600080fd5b506101f960048036038101906101f49190611fbf565b610735565b6040516102069190612414565b60405180910390f35b34801561021b57600080fd5b506102366004803603810190610231919061203a565b6107af565b60405161024391906125e7565b60405180910390f35b34801561025857600080fd5b506102616107d4565b60405161026e91906125e7565b60405180910390f35b34801561028357600080fd5b5061029e60048036038101906102999190611ecc565b610806565b005b3480156102ac57600080fd5b506102c760048036038101906102c29190611f5a565b6108cc565b6040516102d4919061242f565b60405180910390f35b3480156102e957600080fd5b5061030460048036038101906102ff9190611fe8565b6108ec565b60405161031191906125e7565b60405180910390f35b34801561032657600080fd5b50610341600480360381019061033c9190611f83565b610a5e565b005b34801561034f57600080fd5b5061036a60048036038101906103659190611f83565b610a87565b005b34801561037857600080fd5b50610381610b0a565b60405161038e9190612399565b60405180910390f35b3480156103a357600080fd5b506103ac610b32565b6040516103b991906125e7565b60405180910390f35b3480156103ce57600080fd5b506103d7610ca8565b005b3480156103e557600080fd5b506103ee610d30565b6040516103fb919061244a565b60405180910390f35b34801561041057600080fd5b50610419610d56565b60405161042691906125e7565b60405180910390f35b34801561043b57600080fd5b5061045660048036038101906104519190611ef5565b610d5c565b60405161046391906125e7565b60405180910390f35b34801561047857600080fd5b50610481610e0b565b60405161048e91906125e7565b60405180910390f35b3480156104a357600080fd5b506104ac610e11565b005b3480156104ba57600080fd5b506104c3610e93565b6040516104d09190612399565b60405180910390f35b3480156104e557600080fd5b5061050060048036038101906104fb9190611f83565b610ebd565b60405161050d9190612414565b60405180910390f35b34801561052257600080fd5b5061052b610f28565b60405161053891906125e7565b60405180910390f35b34801561054d57600080fd5b5061056860048036038101906105639190611ecc565b610f31565b60405161057591906125e7565b60405180910390f35b34801561058a57600080fd5b50610593610f7a565b6040516105a0919061242f565b60405180910390f35b3480156105b557600080fd5b506105d060048036038101906105cb9190611fe8565b610f81565b6040516105dd91906125e7565b60405180910390f35b3480156105f257600080fd5b5061060d60048036038101906106089190611ecc565b6110ed565b60405161061c9392919061262b565b60405180910390f35b34801561063157600080fd5b5061063a611117565b60405161064791906125e7565b60405180910390f35b34801561065c57600080fd5b5061067760048036038101906106729190611f83565b611149565b005b34801561068557600080fd5b506106a0600480360381019061069b9190611ecc565b611172565b6040516106ad91906125e7565b60405180910390f35b3480156106c257600080fd5b506106cb611179565b6040516106d891906125e7565b60405180910390f35b3480156106ed57600080fd5b5061070860048036038101906107039190611ecc565b61117f565b005b34801561071657600080fd5b5061071f611277565b60405161072c919061244a565b60405180910390f35b60007f7965db0b000000000000000000000000000000000000000000000000000000007bffffffffffffffffffffffffffffffffffffffffffffffffffffffff1916827bffffffffffffffffffffffffffffffffffffffffffffffffffffffff191614806107a857506107a78261129d565b5b9050919050565b60006107cd6107bc610f28565b476107c7919061269f565b83611307565b9050919050565b60007f000000000000000000000000000000000000000000000000000000000000000067ffffffffffffffff16905090565b600061081182610f31565b61081b8342610d5c565b6108259190612780565b905080600160008473ffffffffffffffffffffffffffffffffffffffff1673ffffffffffffffffffffffffffffffffffffffff1681526020019081526020016000206000828254610876919061269f565b925050819055507fc0e523490dd523c33b1878c9eb14ff46991e3f5b2cd33710918618f2a39cba1b82826040516108ae9291906123eb565b60405180910390a16108c8826108c2610b0a565b836113a1565b5050565b600060026000838152602001908152602001600020600101549050919050565b600080600960003373ffffffffffffffffffffffffffffffffffffffff1673ffffffffffffffffffffffffffffffffffffffff16815260200190815260200160002090506005548160000154610942919061269f565b421015610984576040517f08c379a000000000000000000000000000000000000000000000000000000000815260040161097b906124c7565b60405180910390fd5b828160010160008282546109989190612780565b9250508190555082600460008282546109b19190612780565b92505081905550610a053384600760009054906101000a900473ffffffffffffffffffffffffffffffffffffffff1673ffffffffffffffffffffffffffffffffffffffff166113a19092919063ffffffff16565b3373ffffffffffffffffffffffffffffffffffffffff167ff279e6a1f5e320cca91135676d9cb6e44ca8a08c0b88342bcdb1144f6511b5688442604051610a4d929190612602565b60405180910390a282915050919050565b610a67826108cc565b610a7881610a73611427565b61142f565b610a8283836114cc565b505050565b610a8f611427565b73ffffffffffffffffffffffffffffffffffffffff168173ffffffffffffffffffffffffffffffffffffffff1614610afc576040517f08c379a0000000000000000000000000000000000000000000000000000000008152600401610af3906125c7565b60405180910390fd5b610b0682826115ad565b5050565b60007f0000000000000000000000000000000000000000000000000000000000000000905090565b600080600960003373ffffffffffffffffffffffffffffffffffffffff1673ffffffffffffffffffffffffffffffffffffffff16815260200190815260200160002090506005548160000154610b88919061269f565b421015610bca576040517f08c379a0000000000000000000000000000000000000000000000000000000008152600401610bc1906124c7565b60405180910390fd5b600060028260010154610bdd9190612726565b905042826000018190555080826002016000828254610bfc919061269f565b92505081905550610c503382600860009054906101000a900473ffffffffffffffffffffffffffffffffffffffff1673ffffffffffffffffffffffffffffffffffffffff166113a19092919063ffffffff16565b3373ffffffffffffffffffffffffffffffffffffffff167f987d620f307ff6b94d58743cb7a7509f24071586a77759b77c2d4e29f75a2f9a8242604051610c98929190612602565b60405180910390a2809250505090565b610cb0611427565b73ffffffffffffffffffffffffffffffffffffffff16610cce610e93565b73ffffffffffffffffffffffffffffffffffffffff1614610d24576040517f08c379a0000000000000000000000000000000000000000000000000000000008152600401610d1b90612547565b60405180910390fd5b610d2e600061168f565b565b600760009054906101000a900473ffffffffffffffffffffffffffffffffffffffff1681565b60055481565b6000610e03610d6a84610f31565b8473ffffffffffffffffffffffffffffffffffffffff166370a08231306040518263ffffffff1660e01b8152600401610da39190612399565b60206040518083038186803b158015610dbb57600080fd5b505afa158015610dcf573d6000803e3d6000fd5b505050506040513d601f19601f82011682018060405250810190610df39190612011565b610dfd919061269f565b83611307565b905092915050565b60045481565b6000610e1b610f28565b610e24426107af565b610e2e9190612780565b905080600080828254610e41919061269f565b925050819055507fda9d4e5f101b8b9b1c5b76d0c5a9f7923571acfc02376aa076b75a8c080c956b81604051610e7791906125e7565b60405180910390a1610e90610e8a610b0a565b82611755565b50565b6000600360009054906101000a900473ffffffffffffffffffffffffffffffffffffffff16905090565b60006002600084815260200190815260200160002060000160008373ffffffffffffffffffffffffffffffffffffffff1673ffffffffffffffffffffffffffffffffffffffff16815260200190815260200160002060009054906101000a900460ff16905092915050565b60008054905090565b6000600160008373ffffffffffffffffffffffffffffffffffffffff1673ffffffffffffffffffffffffffffffffffffffff168152602001908152602001600020549050919050565b6000801b81565b6000808211610fc5576040517f08c379a0000000000000000000000000000000000000000000000000000000008152600401610fbc90612567565b60405180910390fd5b6000600960003373ffffffffffffffffffffffffffffffffffffffff1673ffffffffffffffffffffffffffffffffffffffff16815260200190815260200160002090508281600101600082825461101c919061269f565b92505081905550428160000181905550826004600082825461103e919061269f565b92505081905550611094333085600760009054906101000a900473ffffffffffffffffffffffffffffffffffffffff1673ffffffffffffffffffffffffffffffffffffffff16611849909392919063ffffffff16565b3373ffffffffffffffffffffffffffffffffffffffff167f5af417134f72a9d41143ace85b0a26dce6f550f894f2cbc1eeee8810603d91b684426040516110dc929190612602565b60405180910390a282915050919050565b60096020528060005260406000206000915090508060000154908060010154908060020154905083565b60007f000000000000000000000000000000000000000000000000000000000000000067ffffffffffffffff16905090565b611152826108cc565b6111638161115e611427565b61142f565b61116d83836115ad565b505050565b6000919050565b60065481565b611187611427565b73ffffffffffffffffffffffffffffffffffffffff166111a5610e93565b73ffffffffffffffffffffffffffffffffffffffff16146111fb576040517f08c379a00000000000000000000000000000000000000000000000000000000081526004016111f290612547565b60405180910390fd5b600073ffffffffffffffffffffffffffffffffffffffff168173ffffffffffffffffffffffffffffffffffffffff16141561126b576040517f08c379a0000000000000000000000000000000000000000000000000000000008152600401611262906124a7565b60405180910390fd5b6112748161168f565b50565b600860009054906101000a900473ffffffffffffffffffffffffffffffffffffffff1681565b60007f01ffc9a7000000000000000000000000000000000000000000000000000000007bffffffffffffffffffffffffffffffffffffffffffffffffffffffff1916827bffffffffffffffffffffffffffffffffffffffffffffffffffffffff1916149050919050565b6000611311611117565b8267ffffffffffffffff16101561132b576000905061139b565b6113336107d4565b61133b611117565b611345919061269f565b8267ffffffffffffffff16111561135e5782905061139b565b6113666107d4565b61136e611117565b8367ffffffffffffffff166113839190612780565b8461138e9190612726565b61139891906126f5565b90505b92915050565b6114228363a9059cbb60e01b84846040516024016113c09291906123eb565b604051602081830303815290604052907bffffffffffffffffffffffffffffffffffffffffffffffffffffffff19166020820180517bffffffffffffffffffffffffffffffffffffffffffffffffffffffff83818316178352505050506118d2565b505050565b600033905090565b6114398282610ebd565b6114c85761145e8173ffffffffffffffffffffffffffffffffffffffff166014611999565b61146c8360001c6020611999565b60405160200161147d92919061235f565b6040516020818303038152906040526040517f08c379a00000000000000000000000000000000000000000000000000000000081526004016114bf9190612465565b60405180910390fd5b5050565b6114d68282610ebd565b6115a95760016002600084815260200190815260200160002060000160008373ffffffffffffffffffffffffffffffffffffffff1673ffffffffffffffffffffffffffffffffffffffff16815260200190815260200160002060006101000a81548160ff02191690831515021790555061154e611427565b73ffffffffffffffffffffffffffffffffffffffff168173ffffffffffffffffffffffffffffffffffffffff16837f2f8788117e7eff1d82e926ec794901d17c78024a50270940304540a733656f0d60405160405180910390a45b5050565b6115b78282610ebd565b1561168b5760006002600084815260200190815260200160002060000160008373ffffffffffffffffffffffffffffffffffffffff1673ffffffffffffffffffffffffffffffffffffffff16815260200190815260200160002060006101000a81548160ff021916908315150217905550611630611427565b73ffffffffffffffffffffffffffffffffffffffff168173ffffffffffffffffffffffffffffffffffffffff16837ff6391f5c32d9c69d2a47ea670b442974b53935d1edc7fd64eb21e047a839171b60405160405180910390a45b5050565b6000600360009054906101000a900473ffffffffffffffffffffffffffffffffffffffff16905081600360006101000a81548173ffffffffffffffffffffffffffffffffffffffff021916908373ffffffffffffffffffffffffffffffffffffffff1602179055508173ffffffffffffffffffffffffffffffffffffffff168173ffffffffffffffffffffffffffffffffffffffff167f8be0079c531659141344cd1fd0a4f28419497f9722a3daafe3b4186f6b6457e060405160405180910390a35050565b80471015611798576040517f08c379a000000000000000000000000000000000000000000000000000000000815260040161178f90612507565b60405180910390fd5b60008273ffffffffffffffffffffffffffffffffffffffff16826040516117be9061234a565b60006040518083038185875af1925050503d80600081146117fb576040519150601f19603f3d011682016040523d82523d6000602084013e611800565b606091505b5050905080611844576040517f08c379a000000000000000000000000000000000000000000000000000000000815260040161183b906124e7565b60405180910390fd5b505050565b6118cc846323b872dd60e01b85858560405160240161186a939291906123b4565b604051602081830303815290604052907bffffffffffffffffffffffffffffffffffffffffffffffffffffffff19166020820180517bffffffffffffffffffffffffffffffffffffffffffffffffffffffff83818316178352505050506118d2565b50505050565b6000611934826040518060400160405280602081526020017f5361666545524332303a206c6f772d6c6576656c2063616c6c206661696c65648152508573ffffffffffffffffffffffffffffffffffffffff16611c939092919063ffffffff16565b905060008151111561199457808060200190518101906119549190611f31565b611993576040517f08c379a000000000000000000000000000000000000000000000000000000000815260040161198a906125a7565b60405180910390fd5b5b505050565b6060600060028360026119ac9190612726565b6119b6919061269f565b67ffffffffffffffff8111156119f5577f4e487b7100000000000000000000000000000000000000000000000000000000600052604160045260246000fd5b6040519080825280601f01601f191660200182016040528015611a275781602001600182028036833780820191505090505b5090507f300000000000000000000000000000000000000000000000000000000000000081600081518110611a85577f4e487b7100000000000000000000000000000000000000000000000000000000600052603260045260246000fd5b60200101907effffffffffffffffffffffffffffffffffffffffffffffffffffffffffffff1916908160001a9053507f780000000000000000000000000000000000000000000000000000000000000081600181518110611b0f577f4e487b7100000000000000000000000000000000000000000000000000000000600052603260045260246000fd5b60200101907effffffffffffffffffffffffffffffffffffffffffffffffffffffffffffff1916908160001a90535060006001846002611b4f9190612726565b611b59919061269f565b90505b6001811115611c45577f3031323334353637383961626364656600000000000000000000000000000000600f861660108110611bc1577f4e487b7100000000000000000000000000000000000000000000000000000000600052603260045260246000fd5b1a60f81b828281518110611bfe577f4e487b7100000000000000000000000000000000000000000000000000000000600052603260045260246000fd5b60200101907effffffffffffffffffffffffffffffffffffffffffffffffffffffffffffff1916908160001a905350600485901c945080611c3e9061289d565b9050611b5c565b5060008414611c89576040517f08c379a0000000000000000000000000000000000000000000000000000000008152600401611c8090612487565b60405180910390fd5b8091505092915050565b6060611ca28484600085611cab565b90509392505050565b606082471015611cf0576040517f08c379a0000000000000000000000000000000000000000000000000000000008152600401611ce790612527565b60405180910390fd5b611cf985611dbf565b611d38576040517f08c379a0000000000000000000000000000000000000000000000000000000008152600401611d2f90612587565b60405180910390fd5b6000808673ffffffffffffffffffffffffffffffffffffffff168587604051611d619190612333565b60006040518083038185875af1925050503d8060008114611d9e576040519150601f19603f3d011682016040523d82523d6000602084013e611da3565b606091505b5091509150611db3828286611dd2565b92505050949350505050565b600080823b905060008111915050919050565b60608315611de257829050611e32565b600083511115611df55782518084602001fd5b816040517f08c379a0000000000000000000000000000000000000000000000000000000008152600401611e299190612465565b60405180910390fd5b9392505050565b600081359050611e4881612c0c565b92915050565b600081519050611e5d81612c23565b92915050565b600081359050611e7281612c3a565b92915050565b600081359050611e8781612c51565b92915050565b600081359050611e9c81612c68565b92915050565b600081519050611eb181612c68565b92915050565b600081359050611ec681612c7f565b92915050565b600060208284031215611ede57600080fd5b6000611eec84828501611e39565b91505092915050565b60008060408385031215611f0857600080fd5b6000611f1685828601611e39565b9250506020611f2785828601611eb7565b9150509250929050565b600060208284031215611f4357600080fd5b6000611f5184828501611e4e565b91505092915050565b600060208284031215611f6c57600080fd5b6000611f7a84828501611e63565b91505092915050565b60008060408385031215611f9657600080fd5b6000611fa485828601611e63565b9250506020611fb585828601611e39565b9150509250929050565b600060208284031215611fd157600080fd5b6000611fdf84828501611e78565b91505092915050565b600060208284031215611ffa57600080fd5b600061200884828501611e8d565b91505092915050565b60006020828403121561202357600080fd5b600061203184828501611ea2565b91505092915050565b60006020828403121561204c57600080fd5b600061205a84828501611eb7565b91505092915050565b61206c816127b4565b82525050565b61207b816127c6565b82525050565b61208a816127d2565b82525050565b600061209b82612662565b6120a58185612678565b93506120b581856020860161286a565b80840191505092915050565b6120ca81612846565b82525050565b60006120db8261266d565b6120e58185612683565b93506120f581856020860161286a565b6120fe81612925565b840191505092915050565b60006121148261266d565b61211e8185612694565b935061212e81856020860161286a565b80840191505092915050565b6000612147602083612683565b915061215282612936565b602082019050919050565b600061216a602683612683565b91506121758261295f565b604082019050919050565b600061218d601383612683565b9150612198826129ae565b602082019050919050565b60006121b0603a83612683565b91506121bb826129d7565b604082019050919050565b60006121d3601d83612683565b91506121de82612a26565b602082019050919050565b60006121f6602683612683565b915061220182612a4f565b604082019050919050565b6000612219602083612683565b915061222482612a9e565b602082019050919050565b600061223c601583612683565b915061224782612ac7565b602082019050919050565b600061225f600083612678565b915061226a82612af0565b600082019050919050565b6000612282601d83612683565b915061228d82612af3565b602082019050919050565b60006122a5601783612694565b91506122b082612b1c565b601782019050919050565b60006122c8602a83612683565b91506122d382612b45565b604082019050919050565b60006122eb601183612694565b91506122f682612b94565b601182019050919050565b600061230e602f83612683565b915061231982612bbd565b604082019050919050565b61232d81612828565b82525050565b600061233f8284612090565b915081905092915050565b600061235582612252565b9150819050919050565b600061236a82612298565b91506123768285612109565b9150612381826122de565b915061238d8284612109565b91508190509392505050565b60006020820190506123ae6000830184612063565b92915050565b60006060820190506123c96000830186612063565b6123d66020830185612063565b6123e36040830184612324565b949350505050565b60006040820190506124006000830185612063565b61240d6020830184612324565b9392505050565b60006020820190506124296000830184612072565b92915050565b60006020820190506124446000830184612081565b92915050565b600060208201905061245f60008301846120c1565b92915050565b6000602082019050818103600083015261247f81846120d0565b905092915050565b600060208201905081810360008301526124a08161213a565b9050919050565b600060208201905081810360008301526124c08161215d565b9050919050565b600060208201905081810360008301526124e081612180565b9050919050565b60006020820190508181036000830152612500816121a3565b9050919050565b60006020820190508181036000830152612520816121c6565b9050919050565b60006020820190508181036000830152612540816121e9565b9050919050565b600060208201905081810360008301526125608161220c565b9050919050565b600060208201905081810360008301526125808161222f565b9050919050565b600060208201905081810360008301526125a081612275565b9050919050565b600060208201905081810360008301526125c0816122bb565b9050919050565b600060208201905081810360008301526125e081612301565b9050919050565b60006020820190506125fc6000830184612324565b92915050565b60006040820190506126176000830185612324565b6126246020830184612324565b9392505050565b60006060820190506126406000830186612324565b61264d6020830185612324565b61265a6040830184612324565b949350505050565b600081519050919050565b600081519050919050565b600081905092915050565b600082825260208201905092915050565b600081905092915050565b60006126aa82612828565b91506126b583612828565b9250827fffffffffffffffffffffffffffffffffffffffffffffffffffffffffffffffff038211156126ea576126e96128c7565b5b828201905092915050565b600061270082612828565b915061270b83612828565b92508261271b5761271a6128f6565b5b828204905092915050565b600061273182612828565b915061273c83612828565b9250817fffffffffffffffffffffffffffffffffffffffffffffffffffffffffffffffff0483118215151615612775576127746128c7565b5b828202905092915050565b600061278b82612828565b915061279683612828565b9250828210156127a9576127a86128c7565b5b828203905092915050565b60006127bf82612808565b9050919050565b60008115159050919050565b6000819050919050565b60007fffffffff0000000000000000000000000000000000000000000000000000000082169050919050565b600073ffffffffffffffffffffffffffffffffffffffff82169050919050565b6000819050919050565b600067ffffffffffffffff82169050919050565b600061285182612858565b9050919050565b600061286382612808565b9050919050565b60005b8381101561288857808201518184015260208101905061286d565b83811115612897576000848401525b50505050565b60006128a882612828565b915060008214156128bc576128bb6128c7565b5b600182039050919050565b7f4e487b7100000000000000000000000000000000000000000000000000000000600052601160045260246000fd5b7f4e487b7100000000000000000000000000000000000000000000000000000000600052601260045260246000fd5b6000601f19601f8301169050919050565b7f537472696e67733a20686578206c656e67746820696e73756666696369656e74600082015250565b7f4f776e61626c653a206e6577206f776e657220697320746865207a65726f206160008201527f6464726573730000000000000000000000000000000000000000000000000000602082015250565b7f546f6b656e73207374696c6c206c6f636b656400000000000000000000000000600082015250565b7f416464726573733a20756e61626c6520746f2073656e642076616c75652c207260008201527f6563697069656e74206d61792068617665207265766572746564000000000000602082015250565b7f416464726573733a20696e73756666696369656e742062616c616e6365000000600082015250565b7f416464726573733a20696e73756666696369656e742062616c616e636520666f60008201527f722063616c6c0000000000000000000000000000000000000000000000000000602082015250565b7f4f776e61626c653a2063616c6c6572206973206e6f7420746865206f776e6572600082015250565b7f416d6f756e74206d757374206265206f76657220300000000000000000000000600082015250565b50565b7f416464726573733a2063616c6c20746f206e6f6e2d636f6e7472616374000000600082015250565b7f416363657373436f6e74726f6c3a206163636f756e7420000000000000000000600082015250565b7f5361666545524332303a204552433230206f7065726174696f6e20646964206e60008201527f6f74207375636365656400000000000000000000000000000000000000000000602082015250565b7f206973206d697373696e6720726f6c6520000000000000000000000000000000600082015250565b7f416363657373436f6e74726f6c3a2063616e206f6e6c792072656e6f756e636560008201527f20726f6c657320666f722073656c660000000000000000000000000000000000602082015250565b612c15816127b4565b8114612c2057600080fd5b50565b612c2c816127c6565b8114612c3757600080fd5b50565b612c43816127d2565b8114612c4e57600080fd5b50565b612c5a816127dc565b8114612c6557600080fd5b50565b612c7181612828565b8114612c7c57600080fd5b50565b612c8881612832565b8114612c9357600080fd5b5056fea2646970667358221220f973e72591531210086c66a98e4587dd7e3fb65e6a5bd9e255e127330e3b501564736f6c63430008040033",
  "linkReferences": {},
  "deployedLinkReferences": {}
}